:040000008031132810
:100008007E1480318B1E09280A2811280B1D0D2803
:100018000E2811288031962080317E100900803109
:100028001528F001F101F201F301F401F501F601DF
:100038007E1020008031A6280130F2070030F33D01
:100048000130F4070030F53D00307502FB3003192C
:100058007402031C302831283F28F401F5010310ED
:1000680022008E1E031403183A283D2822008E16FB
:100078003F2822008E1201307302F53003197202F4
:10008800031C472848285628F201F30103102200D0
:100098000E1E031403185128542822000E16562841
:1000A80022000E120800220090018C018D018E01A1
:1000B8000830210090003F308C00FF308D00C030A8
:1000C8008E00313023008D003F308C0024009001D9
:1000D8008D012100951722009D01080021001508B7
:1000E800C039123895000630200095000630F60019
:1000F8000B118B167808FA007708F9008031C320B5
:10010800803108008031572080318031B52080311E
:100118008031C82080318031722080318031BC200C
:10012800803108000B1176082000950077087804C4
:1001380003199F28A028A52878088A0077080A00AC
:10014800803108008031862080312030F90000306D
:10015800FA008031C32080318B170B17B228803109
:100168001328703021009900980122009601080098
:1001780021009E019B019C0101309D0008007A0826
:10018800F8007908F70008001630210097000800E9
:020000040001F9
:04000E00E43FFF1EAE
:00000001FF
