:040000008031132810
:100008007E1480318B1E09280A2811280B1D0D2803
:100018000E2811288E31592680317E100900803132
:1000280015284B3084008E30850041308600003022
:1000380087000E308E3124268031FC01FD012030EE
:1000480084000030850021308E311E2680317E10DC
:10005800200086311C2EF3007308031D3428352830
:100068006028F001F00A720884318524803102305A
:10007800F00072088431852480310330F000720862
:100088008431852480310430F0007208843185245D
:1000980080310530F00072088431852480310630C3
:1000A800F00072088431852480310830F000013076
:1000B800843185248031DC2A7303031D6428652874
:1000C80090280530F000720884318524803106308C
:1000D800F00072088431852480310830F000013046
:1000E8008431852480310830F00001308431852442
:1000F80080310830F00001308431852480310830A7
:10010800F00001308431852480310830F00001305E
:10011800843185248031DC2A02307306031D95283A
:100128009628C128F001F00A7208843185248031AC
:100138000230F00072088431852480310430F000E8
:1001480072088431852480310530F00072088431CA
:10015800852480310730F00072088431852480318D
:100168000830F00001308431852480310830F000F7
:100178000130843185248031DC2A03307306031D65
:10018800C628C728F228F001F00A720884318524AD
:1001980080310430F00072088431852480310530C4
:1001A800F00072088431852480310630F00072082E
:1001B8008431852480310730F00072088431852429
:1001C80080310830F00001308431852480310830D6
:1001D800F0000130843185248031DC2A0430730634
:1001E800031DF728F82823290330F000720884310A
:1001F800852480310530F0007208843185248031EF
:100208000630F00072088431852480310730F00010
:1002180072088431852480310830F000013084313F
:10022800852480310830F000013084318524803104
:100238000830F0000130843185248031DC2A053013
:100248007306031D282929295429F001F00A720888
:100258008431852480310330F0007208843185248C
:1002680080310430F00072088431852480310630F2
:10027800F00072088431852480310730F00072085C
:100288008431852480310830F000013084318524A0
:1002980080310830F0000130843185248031DC2A37
:1002A80006307306031D59295A298529F001F00AD9
:1002B80072088431852480310230F000720884315C
:1002C800852480310330F000720884318524803120
:1002D8000630F00072088431852480310730F00040
:1002E80072088431852480310830F000013084316F
:1002F800852480310830F000013084318524803134
:10030800DC2A07307306031D8A298B29B629033096
:10031800F00072088431852480310430F0007208BE
:100328008431852480310530F000720884318524B9
:1003380080310630F000720884318524803108301D
:10034800F00001308431852480310830F00001301C
:100358008431852480310830F000013084318524CF
:100368008031DC2A08307306031DBB29BC29E72924
:10037800F001F00A72088431852480310230F000DF
:1003880072088431852480310330F000720884318A
:10039800852480310430F00072088431852480314E
:1003A8000530F00072088431852480310630F00071
:1003B80072088431852480310730F0007208843156
:1003C80085248031DC2A09307306031DEC29ED29C8
:1003D800182A0330F00072088431852480310430F3
:1003E800F00072088431852480310530F0007208ED
:1003F8008431852480310630F000720884318524E8
:1004080080310730F000720884318524803108304B
:10041800F00001308431852480310830F00001304B
:10042800843185248031DC2A0A307306031D1D2A95
:100438001E2A492A0830F000720884318524803148
:100448000830F00001308431852480310830F00014
:1004580001308431852480310830F0000130843146
:10046800852480310830F0000130843185248031C2
:100478000830F00001308431852480310830F000E4
:100488000130843185248031DC2A0B307306031D4A
:100498004E2A4F2A7A2AF001F00A720884318524FC
:1004A80080310230F00072088431852480310330B5
:1004B800F00072088431852480310430F00072081D
:1004C8008431852480310830F0000130843185245E
:1004D80080310830F00001308431852480310830C3
:1004E800F0000130843185248031DC2A0C30730619
:1004F800031D7F2A802AAB2A0330F000720884315A
:10050800852480310430F0007208843185248031DC
:100518000530F00072088431852480310730F000FE
:1005280072088431852480310830F000013084312C
:10053800852480310830F0000130843185248031F1
:100548000830F0000130843185248031DC2A0D30F8
:100558007306031DB02AB12ADC2AF001F00A7208DA
:100568008431852480310230F0007208843185247A
:1005780080310630F00072088431852480310730DC
:10058800F00072088431852480310830F000013091
:100598008431852480310830F0000130843185248D
:1005A80080310830F0000130843185248031DC2A24
:1005B80008008E314126823173082000D500720868
:1005C800D4007108D3007008D2000D0C0139CF0097
:1005D8000D0C890C0139D0000D0CF400F40C740CCE
:1005E8000139D1004F08031DFA2AFB2A4B2B4B086F
:1005F8004F060319002B012B0C2B5508AF0054088C
:10060800AE005308AD005208AC004F08CB007A2B5F
:100618002C085202F4002D08533BF5002E08543BD9
:10062800F6002F08553BF7007708031D262B7608A0
:10063800031D262BE93074020330753B031C252B60
:10064800262B2A2B02302000C0007A2B20002C08F1
:100658005202F4002D08533BF5002E08543BF600D7
:100668002F08553BF7007708031D462B7608031D16
:10067800462B7508031D462B33307402031C452B8B
:10068800462B4A2B01302000C0007A2B7A2B4B03D3
:1006980003194F2B502B5B2B5508AF005408AE00A5
:1006A8005308AD005208AC000130CB007A2B2C085F
:1006B8005202F4002D08533BF5002E08543BF60077
:1006C8002F08553BF7007708031D762B7608031D86
:1006D800762B7508031D762B33307402031C752B9B
:1006E800762B7A2B2000C0010130CE002000500864
:1006F800031D7F2B802BD02B4A0850060319852B0E
:10070800862B912B5508AB005408AA005308A90062
:100718005208A8005008CA00FF2B28085202F4000B
:100728002908533BF5002A08543BF6002B08553B93
:10073800F7007708031DAB2B7608031DAB2BE930B8
:1007480074020330753B031CAA2BAB2BAF2B023072
:100758002000BF00FF2B200028085202F4002908BF
:10076800533BF5002A08543BF6002B08553BF7008D
:100778007708031DCB2B7608031DCB2B7508031DAB
:10078800CB2B33307402031CCA2BCB2BCF2B01305D
:100798002000BF00FF2BFF2B4A030319D42BD52BB6
:1007A800E02B5508AB005408AA005308A9005208CA
:1007B800A8000130CA00FF2B28085202F4002908BB
:1007C800533BF5002A08543BF6002B08553BF7002D
:1007D8007708031DFB2B7608031DFB2B7508031DEB
:1007E800FB2B33307402031CFA2BFB2BFF2B20004E
:1007F800BF010130CD0020005108031D042C052C39
:10080800552C4908510603190A2C0B2C162C55088F
:10081800A7005408A6005308A5005208A4005108D0
:10082800C900842C24085202F4002508533BF50023
:100838002608543BF6002708553BF7007708031DA8
:10084800302C7608031D302CE93074020330753BD8
:10085800031C2F2C302C342C02302000BE00842C9A
:10086800200024085202F4002508533BF50026080E
:10087800543BF6002708553BF7007708031D502C1A
:100888007608031D502C7508031D502C3330740254
:10089800031C4F2C502C542C01302000BE00842CFB
:1008A800842C49030319592C5A2C652C5508A70088
:1008B8005408A6005308A5005208A4000130C90036
:1008C800842C24085202F4002508533BF50026081E
:1008D800543BF6002708553BF7007708031D802C8A
:1008E8007608031D802C7508031D802C3330740294
:1008F800031C7F2C802C842C2000BE010130CC00EE
:100908000800F1007103031D8A2C8B2C0F2D700336
:10091800031D8F2C902C9A2C8E313926843121007E
:100928008E118C1322008E118C17182E023070062F
:10093800031D9F2CA02CAA2C8E313926843121002E
:100948008E110E1022008E110E14182E0330700610
:10095800031DAF2CB02CBA2C8E31392684312100DE
:100968008E110E1122008E110E15182E04307006ED
:10097800031DBF2CC02CCA2C8E313926843121008E
:100988008E108E1122008E108E15182E05307006CE
:10099800031DCF2CD02CDA2C8E313926843121003E
:1009A8008E118E1022008E118E14182E06307006AD
:1009B800031DDF2CE02CEA2C8E31392684312100EE
:1009C8000E118E1122000E118E15182E073070068A
:1009D800031DEF2CF02CFA2C8E313926843121009E
:1009E8000E118C1322000E118C17182E0830700669
:1009F800031DFF2C002D182E21008C130C130E1034
:100A08008E100E118E1122008C130C130E108E10E6
:100A18000E118E11182E02307106031D142D152D7E
:100A2800942D7003031D192D1A2D242D8E3139266E
:100A3800843121008E100E1122008E100E15182EF2
:100A480002307006031D292D2A2D342D8E313926AA
:100A5800843121000E110E1022000E110E14182ED2
:100A680003307006031D392D3A2D442D8E31392659
:100A7800843121000E118E1022000E118E14182EB2
:100A880004307006031D492D4A2D542D8E31392608
:100A9800843121008E100E1022008E100E14182E94
:100AA80005307006031D592D5A2D642D8E313926B7
:100AB800843121000E108E1122000E108E15182E72
:100AC80006307006031D692D6A2D742D8E31392666
:100AD800843121000E108E1022000E108E14182E54
:100AE80007307006031D792D7A2D842D8E31392615
:100AF800843121000E100E1122000E100E15182E32
:100B080008307006031D892D8A2D182E8E3139263E
:100B1800843121008C130E1022008C130E14182E11
:100B280003307106031D992D9A2D182E7003031D8D
:100B38009E2D9F2DA92D8E313926843121000E102E
:100B48000C1322000E100C17182E02307006031D0D
:100B5800AE2DAF2DB92D8E313926843121008E105E
:100B68000C1322008E100C17182E03307006031D6C
:100B7800BE2DBF2DC92D8E313926843121000C138D
:100B88000E1122000C130E15182E04307006031DCA
:100B9800CE2DCF2DD92D8E313926843121008E11BD
:100BA8000C1322008E110C17182E05307006031D29
:100BB800DE2DDF2DE92D8E313926843121000E11ED
:100BC8000C1322000E110C17182E06307006031D88
:100BD800EE2DEF2DF92D8E313926843121000C139D
:100BE8000E1022000C130E14182E07307006031D69
:100BF800FE2DFF2D092E8E313926843121000C134C
:100C08008E1022000C138E14182E08307006031D47
:100C18000E2E0F2E182E8E313926843121008C137A
:100C28000C1322008C130C172830890B192E08007E
:100C38008E3169268631F430F0000E30F1008E31A5
:100C4800182686318B170B178B170B1700308E3130
:100C58007C26863171082000DC007008DB005C0807
:100C6800F9005B08F8008F31BE2786312000E500C7
:100C78008231DD2286318E3141268631730820008B
:100C8800A3007208A2007108A1007008A0008F31AB
:100C98005027863120003C08031D532E542EDF2E8A
:100CA8004003031D582E592E612E4E03031D5D2E41
:100CB8005E2E612E0130FC07CE013F03031D652E19
:100CC800662E6E2E4D03031D6A2E6B2E6E2E01307E
:100CD800FC07CD0102303F06031D732E742EA02E93
:100CE80045082002D7004608213BD8004708223B88
:100CF800D9004808233BDA005A08031D8F2E5908EB
:100D0800031D8F2E5808031D8F2E65305702031CB4
:100D18008E2E8F2EA02E63307C020318942E952ED3
:100D2800972E0130FC0720002308C8002208C700BE
:100D38002108C6002008C50020003E03031DA52E7B
:100D4800A62EAE2E4C03031DAA2EAB2EAE2E0130BE
:100D5800FC02CC0102303E06031DB32EB42EDF2E5A
:100D680041082002D7004208213BD8004308223B13
:100D7800D9004408233BDA005A08031DCF2E59082E
:100D8800031DCF2E5808031DCF2E65305702031CB4
:100D9800CE2ECF2EDF2E7C080319D32ED42ED62E9E
:100DA8000130FC0220002308C4002208C3002108E7
:100DB800C2002008C1000B30F70020006508873109
:100DC800442786312A2E80311328F501F11FED2E94
:100DD800EE2EF52EF009F109F00A0319F10A013097
:100DE800F500F31FF82EF92E002FF209F309F20A85
:100DF8000319F30A0130F506F601F70170087104CA
:100E08000319072F082F352F0130F400122F013056
:100E1800F035F10D890B0C2F0130F407F11F152F58
:100E2800162F0B2F0130F635F70D890B172F710888
:100E38007302031D212F70087202031C242F252F13
:100E48002A2F7008F2027108F33B76140130F1364C
:100E5800F00C890B2B2F0130F402031D342F352F92
:100E6800162F75080319392F3A2F3F2FF609F7095E
:100E7800F60A0319F70A7708F1007608F000080067
:100E88002000CF004F08F800F9017808D20079084F
:100E9800D3000A30F0000030F1005308F300520884
:100EA800F2008F318427873170082000D6000A307D
:100EB8005602031C602F612F722F0A30F000003099
:100EC800F1005608F800F9017808F2007908F300F3
:100ED80087319B27873170082000D6000A30F00040
:100EE8000030F1005308F3005208F2008F311E273A
:100EF800873170082000D0007708D100D401D501CF
:100F08005008F4005108F50056088E31B226873192
:100F180001302000D4070030D53D003055020A309A
:100F280003195402031C992F9A2F842F0800F501E6
:100F3800F31F9F2FA02FA72FF209F309F20A031915
:100F4800F30A0130F500F11FAA2FAB2FB02FF009DB
:100F5800F109F00A0319F10A700871040319B52F91
:100F6800B62FDD2F0130F400C02F0130F035F10D20
:100F7800890BBA2F0130F407F11FC32FC42FB92FE3
:100F880071087302031DCA2F70087202031CCD2F4B
:100F9800CE2FD22F7008F2027108F33B0130F136E0
:100FA800F00C890BD32F0130F402031DDC2FDD2F49
:100FB800C42F75080319E12FE22FE72FF209F3096F
:100FC800F20A0319F30A7308F1007208F000080026
:100FD80021001508C0391338950006302000950007
:100FE8000630FD000B118B166408F1006308F00051
:080FF8008E3118268731080034
:101C0400163021009700080071082000DE007008DB
:101C1400DD00080071082000E2007008E1000800FF
:101C240071082000E0007008DF000800710820003F
:101C3400E4007008E3000800640080010131890BAE
:101C44001F2E0034FE0012001E00FE0B252E003451
:101C54007830210099009801220096010800803014
:101C640021009E009B019C0101309D000800210081
:101C74008C170C170E148E140E158E1508002000E8
:101C84003308F3003208F2003108F1003008F000A4
:101C94000800FF34FF34FF347F34FF34FF34FF3453
:101CA4007F340134013401340134013401340B1123
:101CB4007D0820009500630864040319622E632ED6
:101CC400682E64088A0063080A008E3108008E3189
:101CD40097268E318E312A268E318E3102268E3110
:101CE4008E3131268E318731EC278E318E31D226DA
:101CF4008E310800F3007308F200F20DF20D21009A
:101D04001D087206833972069D001D140630890B66
:101D1400892E003221009D149D18912E922E8E2E14
:101D24001C08F1001B08F0000800220090018C013F
:101D34008D018E010830210090003F308C00FF306F
:101D44008D0080308E00313023008D003F308C00B8
:101D5400240090018D012100951722009D010800A7
:101D6400F600F201F20A760880312F208E3102301B
:101D7400F200740880312F208E310330F2000A30D3
:101D840080312F208E310330F200750880312F20EE
:101D94008E31F201F20A0A3080312F208E31080090
:101DA400083023009F0080309D0024309E00CF30F7
:101DB4009B009C010030F0000030F1008E310C26B5
:101DC4008E310030F0000030F1008E3112268E3159
:101DD4000030F0000030F1008E3106268E312000F4
:101DE400BD01080001302000B0070030B13DB23D14
:101DF400B33D0130B6070030B73D0130B8070030BD
:101E0400B93D0130B4070030B53D00303902FB3034
:101E140003193802031C0F2F102F122FB801B90118
:101E240001303702F53003193602031C1A2F1B2F19
:101E34001D2FB601B7010800700871040319232F80
:101E4400242F4B2F0130F4002E2F0130F035F10DEB
:101E5400890B282F0130F407F11F312F322F272F40
:101E640071087302031D382F70087202031C3B2F84
:101E74003C2F402F7008F2027108F33B0130F13619
:101E8400F00C890B412F0130F402031D4A2F4B2F14
:101E9400322F7308F1007208F0000800F0012000EE
:101EA40040030319562F572F5D2F02304006031DA0
:101EB4005C2F5D2F5F2F0130F0073F030319632F61
:101EC400642F6A2F02303F06031D692F6A2F6C2F7F
:101ED4000130F0073E030319702F712F772F023062
:101EE4003E06031D762F772F792F0130F00702303D
:101EF4007002031C7E2F7F2F822F0130BC00832FA2
:101F0400BC010800F401F5017008710403198B2F5A
:101F14008C2FB92F0130F600962F0130F035F10DDA
:101F2400890B902F0130F607F11F992F9A2F8F2FCD
:101F34000130F435F50D890B9B2F71087302031DD5
:101F4400A52F70087202031CA82FA92FAE2F7008AA
:101F5400F2027108F33B74140130F136F00C890B72
:101F6400AF2F0130F602031DB82FB92F9A2F750831
:101F7400F1007408F0000800FF3078052000CF005D
:101F840003307905D000FF30FA000130FB004F0820
:101F94007A02D10050087B3BD2005108FA3ED100AE
:101FA4000030523DD2000A30F0000030F1005208F7
:101FB400F3005108F2008631E9268F3171082000C0
:101FC400D2007008D1005208803AFA0080307A02B8
:101FD400031DEE2F64305102031CF12FF22FF72F53
:101FE40063302000D1000030D2002000D21FFB2F2C
:0C1FF400FC2FFE2FD101D2015108080083
:020000040001F9
:04000E00E43FFF1EAE
:00000001FF
