:040000008031132810
:100008007E1480318B1E09280A2811280B1D0D2803
:100018000E2811288D31132580317E10090080317A
:100028001528EB3084008730850047308600003083
:10003800870014308C31EC248031FD01203084009D
:100048000030850027308C31E62480317E10200076
:100058008F31162FF3007308031D332834285F28C7
:10006800F001F00A72088431842480310230F000F3
:1000780072088431842480310330F000720884319E
:10008800842480310430F000720884318424803163
:100098000530F00072088431842480310630F00085
:1000A80072088431842480310830F00001308431B2
:1000B80084248031DB2A7303031D632864288F2876
:1000C8000530F00072088431842480310630F00055
:1000D80072088431842480310830F0000130843182
:1000E800842480310830F000013084318424803148
:1000F8000830F00001308431842480310830F00069
:1001080001308431842480310830F000013084319A
:1001180084248031DB2A02307306031D9428952835
:10012800C028F001F00A720884318424803102303A
:10013800F00072088431842480310430F0007208A1
:100148008431842480310530F0007208843184249D
:1001580080310730F00072088431842480310830FF
:10016800F00001308431842480310830F0000130FF
:10017800843184248031DB2A03307306031DC528AB
:10018800C628F128F001F00A7208843184248031ED
:100198000430F00072088431842480310530F00086
:1001A80072088431842480310630F000720884316A
:1001B800842480310730F00072088431842480312F
:1001C8000830F00001308431842480310830F00098
:1001D8000130843184248031DB2A04307306031D06
:1001E800F628F72822290330F00072088431842485
:1001F80080310530F0007208843184248031063063
:10020800F00072088431842480310730F0007208CD
:100218008431842480310830F00001308431842412
:1002280080310830F0000130843184248031083076
:10023800F0000130843184248031DB2A05307306D4
:10024800031D272928295329F001F00A720884314F
:10025800842480310330F000720884318424803192
:100268000430F00072088431842480310630F000B4
:1002780072088431842480310730F0007208843198
:10028800842480310830F0000130843184248031A6
:100298000830F0000130843184248031DB2A0630B4
:1002A8007306031D582959298429F001F00A720898
:1002B8008431842480310230F0007208843184242F
:1002C80080310330F0007208843184248031063094
:1002D800F00072088431842480310730F0007208FD
:1002E8008431842480310830F00001308431842442
:1002F80080310830F0000130843184248031DB2AD9
:1003080007307306031D89298A29B5290330F000AF
:1003180072088431842480310430F00072088431FA
:10032800842480310530F0007208843184248031BF
:100338000630F00072088431842480310830F000DF
:1003480001308431842480310830F0000130843158
:10035800842480310830F0000130843184248031D5
:10036800DB2A08307306031DBA29BB29E629F001E8
:10037800F00A72088431842480310230F000720857
:100388008431842480310330F0007208843184245D
:1003980080310430F00072088431842480310530C3
:1003A800F00072088431842480310630F00072082D
:1003B8008431842480310730F00072088431842429
:1003C8008031DB2A09307306031DEB29EC29172A33
:1003D8000330F00072088431842480310430F00046
:1003E80072088431842480310530F0007208843129
:1003F800842480310630F0007208843184248031EE
:100408000730F00072088431842480310830F0000D
:1004180001308431842480310830F0000130843187
:1004280084248031DB2A0A307306031D1C2A1D2A06
:10043800482A0830F000720884318424803108305A
:10044800F00001308431842480310830F00001301C
:100458008431842480310830F000013084318424D0
:1004680080310830F0000130843184248031083034
:10047800F00001308431842480310830F0000130EC
:10048800843184248031DB2A0B307306031D4D2A06
:100498004E2A792AF001F00A7208843184248031C6
:1004A8000230F00072088431842480310330F00077
:1004B80072088431842480310430F0007208843159
:1004C800842480310830F000013084318424803164
:1004D8000830F00001308431842480310830F00085
:1004E8000130843184248031DB2A0C307306031DEB
:1004F8007E2A7F2AAA2A0330F000720884318424D5
:1005080080310430F0007208843184248031053051
:10051800F00072088431842480310730F0007208BA
:100528008431842480310830F000013084318424FF
:1005380080310830F0000130843184248031083063
:10054800F0000130843184248031DB2A0D307306B9
:10055800031DAF2AB02ADB2AF001F00A72088431A1
:10056800842480310230F000720884318424803180
:100578000630F00072088431842480310730F0009E
:1005880072088431842480310830F00001308431CD
:10059800842480310830F000013084318424803193
:1005A8000830F0000130843184248031DB2A0800CF
:1005B8008D310925823173082000E1007208E000BE
:1005C8007108DF007008DE000D0C0139DB000D0C2E
:1005D800890C0139DC000D0CF400F40C740C0139A1
:1005E800DD005B08031DF92AFA2A4A2B55085B0629
:1005F8000319FF2A002B0B2B6108AB006008AA0027
:100608005F08A9005E08A8005B08D500792B2808B8
:100618005E02F40029085F3BF5002A08603BF600FB
:100628002B08613BF7007708031D252B7608031D6F
:10063800252BE93074020330753B031C242B252B32
:10064800292B02302000C500792B200028085E02E3
:10065800F40029085F3BF5002A08603BF6002B08E8
:10066800613BF7007708031D452B7608031D452BD2
:100678007508031D452B33307402031C442B452B8E
:10068800492B01302000C500792B792B550303191C
:100698004E2B4F2B5A2B6108AB006008AA005F084D
:1006A800A9005E08A8000130D500792B28085E0251
:1006B800F40029085F3BF5002A08603BF6002B0888
:1006C800613BF7007708031D752B7608031D752B12
:1006D8007508031D752B33307402031C742B752B9E
:1006E800792B2000C5010130D80020005C08031DCB
:1006F8007E2B7F2BCF2B54085C060319842B852B6C
:10070800902B6108A7006008A6005F08A5005E0896
:10071800A4005C08D400FE2B24085E02F40025081F
:100728005F3BF5002608603BF6002708613BF700B1
:100738007708031DAA2B7608031DAA2BE93074023B
:100748000330753B031CA92BAA2BAE2B02302000CB
:10075800C400FE2B200024085E02F40025085F3B3D
:10076800F5002608603BF6002708613BF70077088C
:10077800031DCA2B7608031DCA2B7508031DCA2B37
:1007880033307402031CC92BCA2BCE2B0130200036
:10079800C400FE2BFE2B54030319D32BD42BDF2BC1
:1007A8006108A7006008A6005F08A5005E08A4000D
:1007B8000130D400FE2B24085E02F40025085F3BBC
:1007C800F5002608603BF6002708613BF70077082C
:1007D800031DFA2B7608031DFA2B7508031DFA2B47
:1007E80033307402031CF92BFA2BFE2B2000C401B2
:1007F8000130D70020005D08031D032C042C542C65
:1008080053085D060319092C0A2C152C6108A3004E
:100818006008A2005F08A1005E08A0005D08D30080
:10082800832C20085E02F40021085F3BF5002208B3
:10083800603BF6002308613BF7007708031D2F2C67
:100848007608031D2F2CE93074020330753B031C16
:100858002E2C2F2C332C02302000C300832C200098
:1008680020085E02F40021085F3BF5002208603B87
:10087800F6002308613BF7007708031D4F2C760824
:10088800031D4F2C7508031D4F2C33307402031CB5
:100898004E2C4F2C532C01302000C300832C832C6A
:1008A80053030319582C592C642C6108A3006008C1
:1008B800A2005F08A1005E08A0000130D300832CCD
:1008C80020085E02F40021085F3BF5002208603B27
:1008D800F6002308613BF7007708031D7F2C760894
:1008E800031D7F2C7508031D7F2C33307402031CF5
:1008F8007E2C7F2C832C2000C3010130D6000800F9
:10090800F1007103031D892C8A2C0E2D7003031D21
:100918008E2C8F2C992C8D310125843121008E113C
:100928008C1322008E118C17172E02307006031DAF
:100938009E2C9F2CA92C8D310125843121008E11EC
:100948000E1022008E110E14172E03307006031D90
:10095800AE2CAF2CB92C8D310125843121008E119C
:100968000E1122008E110E15172E04307006031D6D
:10097800BE2CBF2CC92C8D310125843121008E104D
:100988008E1122008E108E15172E05307006031D4D
:10099800CE2CCF2CD92C8D310125843121008E11FC
:1009A8008E1022008E118E14172E06307006031D2D
:1009B800DE2CDF2CE92C8D310125843121000E112C
:1009C8008E1122000E118E15172E07307006031D8A
:1009D800EE2CEF2CF92C8D310125843121000E11DC
:1009E8008C1322000E118C17172E08307006031D69
:1009F800FE2CFF2C172E21008C130C130E108E10BA
:100A08000E118E1122008C130C130E108E100E1165
:100A18008E11172E02307106031D132D142D932DE0
:100A28007003031D182D192D232D8D3101258431B7
:100A380021008E100E1122008E100E15172E023076
:100A48007006031D282D292D332D8D310125843164
:100A580021000E110E1022000E110E14172E033055
:100A68007006031D382D392D432D8D310125843114
:100A780021000E118E1022000E118E14172E043034
:100A88007006031D482D492D532D8D3101258431C4
:100A980021008E100E1022008E100E14172E053015
:100AA8007006031D582D592D632D8D310125843174
:100AB80021000E108E1122000E108E15172E0630F2
:100AC8007006031D682D692D732D8D310125843124
:100AD80021000E108E1022000E108E14172E0730D3
:100AE8007006031D782D792D832D8D3101258431D4
:100AF80021000E100E1122000E100E15172E0830B0
:100B08007006031D882D892D172E8D3101258431FE
:100B180021008C130E1022008C130E14172E033094
:100B28007106031D982D992D172E7003031D9D2DF9
:100B38009E2DA82D8D310125843121000E100C1316
:100B480022000E100C17172E02307006031DAD2D53
:100B5800AE2DB82D8D310125843121008E100C1356
:100B680022008E100C17172E03307006031DBD2DA2
:100B7800BE2DC82D8D310125843121000C130E1195
:100B880022000C130E15172E04307006031DCD2DF0
:100B9800CE2DD82D8D310125843121008E110C13D5
:100BA80022008E110C17172E05307006031DDD2D3F
:100BB800DE2DE82D8D310125843121000E110C1315
:100BC80022000E110C17172E06307006031DED2D8E
:100BD800EE2DF82D8D310125843121000C130E10D6
:100BE80022000C130E14172E07307006031DFD2D5E
:100BF800FE2D082E8D310125843121000C138E1015
:100C080022000C138E14172E08307006031D0D2EAB
:100C18000E2E172E8D310125843121008C130C13D3
:100C280022008C130C172830890B182E080020007E
:100C38004608E6004603031D222E232E262E5A08B8
:100C4800E7002E2E02304606031D2B2E2C2E2E2EAC
:100C58005908E700C501C401C3018231DC2286318D
:100C68008D310925863173082000AF007208AE0067
:100C78007108AD007008AC00873104278631200068
:100C88004208031D482E492E032F4503031D4D2EF0
:100C98004E2E5D2E5803031D522E532E5D2E01300D
:100CA800E60703306602031C5A2E5B2E5C2EE60113
:100CB800D8014403031D612E622E6A2E5703031DBB
:100CC800662E672E6A2E0130E707D70102304406E8
:100CD800031D6F2E702E9C2E4F082C02E200500828
:100CE8002D3BE30051082E3BE40052082F3BE50062
:100CF8006508031D8B2E6408031D8B2E6308031DD6
:100D08008B2E65306202031C8A2E8B2E9C2E63303C
:100D1800200067020318912E922E942E0130E707C7
:100D28002F08D2002E08D1002D08D0002C08CF00A3
:100D380020004303031DA12EA22EAA2E5603031D35
:100D4800A62EA72EAA2E0130E702D60102304306AE
:100D5800031DAF2EB02EDB2E4B082C02E2004C08F0
:100D68002D3BE3004D082E3BE4004E082F3BE500E9
:100D78006508031DCB2E6408031DCB2E6308031DD5
:100D8800CB2E65306202031CCA2ECB2EDB2E200030
:100D980067080319D02ED12ED32E0130E7022F0871
:100DA800CE002E08CD002D08CC002C08CB0020004A
:100DB8004103031DE02EE12EEA2EC1014003031D6D
:100DC800E62EE72E032FC001C601032F460866064C
:100DD8000319EF2EF02EF32E6608C600032F4603E4
:100DE800031DF72EF82EFB2E6708DA00032F0230BA
:100DF8004606031D002F012F032F6708D90008009E
:100E0800F8018D31092587317308FC007208FB0051
:100E18007108FA007008F900200045030319152F1E
:100E2800162F1C2F02304506031D1B2F1C2F282FA1
:100E38000130F8077C08CA007B08C9007A08C80096
:100E48007908C700C101C001440303192C2F2D2FB5
:100E5800332F02304406031D322F332F3F2F01302A
:100E6800F8077C08CA007B08C9007A08C800790816
:100E7800C700C101C00143030319432F442F4A2F60
:100E880002304306031D492F4A2F562F0130F80719
:100E98007C08CA007B08C9007A08C8007908C7001E
:100EA800C101C00102307802031C5B2F5C2F5F2F49
:100EB8000130C200602FC2017808031D642F652F1E
:100EC8008D2F0130C10047087902F40048087A3BA9
:100ED800F50049087B3BF6004A087C3BF700770899
:100EE800031D812F7608031D812F8930740213306A
:100EF800753B031C802F812F8F2F01302000C000ED
:100F08007C08CA007B08C9007A08C8007908C700AD
:100F18008F2FC101C0010800F501F11F942F952FF3
:100F28009C2FF009F109F00A0319F10A0130F500C4
:100F3800F31F9F2FA02FA72FF209F309F20A031915
:100F4800F30A0130F506F601F70170087104031978
:100F5800AE2FAF2FDC2F0130F400B92F0130F03560
:100F6800F10D890BB32F0130F407F11FBC2FBD2FF2
:100F7800B22F0130F635F70D890BBE2F71087302B9
:100F8800031DC82F70087202031CCB2FCC2FD12F42
:100F98007008F2027108F33B76140130F136F00C58
:100FA800890BD22F0130F402031DDB2FDC2FBD2F5C
:100FB80075080319E02FE12FE62FF609F709F60A5D
:100FC8000319F70A7708F1007608F0000800FF34E3
:100FD800FF34FF34FF34FF34FF34FF347F34FF34F1
:100FE800FF34FF347F3401340134013401340134D7
:060FF80001341D341F341A
:10199400163021009700080071082100A10070088A
:1019A400A000080071082000E9007008E8000800A1
:1019B40071082100A3007008A2000800710820002B
:1019C400EB007008EA000800640080010131890B13
:1019D400E72C0034FE0012001E00FE0BED2C003438
:1019E4007830210099009801220096010800F03017
:1019F40021009E009B019C0101309D0008002100F4
:101A04008C170C170E148E140E158E15080020005A
:101A14003308F3003208F2003108F1003008F00016
:101A240008000B117D08200095006A086B04031957
:101A34001C2D1D2D222D6B088A006A080A008D3189
:101A440008008D315D258D318C31F2248D318C313E
:101A5400CA248D318D3149258D318C31F9248D3154
:101A64008D31B3258D31080000308D3178258D31CD
:101A740071082000ED007008EC006D08F9006C0896
:101A8400F8008E31D4268D312000EE0008002100AC
:101A94001508C0391338950006302000950006302B
:101AA400FD000B118B166B08F1006A08F0008C31F5
:101AB400E0248D310800220090018C018D018E01FB
:101AC4000830210090003F308C00FF308D008030C2
:101AD4008E00313023008D003F308C0024009001B3
:101AE4008D012100951722009D010800F300730861
:101AF400F200F20DF20D21001D0872068339720600
:101B04009D001D140630890B852D003221009D1483
:101B14009D188D2D8E2D8A2D1C08F1001B08F000B8
:101B24000800F600F201F20A760880312E208D3189
:101B34000230F200740880312E208D310330F2001F
:101B44000A3080312E208D310330F2007508803147
:101B54002E208D31F201F20A0A3080312E208D318F
:101B64000800083023009F0090309D0024309E0020
:101B7400CF309B009C010030F0000030F1008C312C
:101B8400D4248D310030F0000030F1008C31DA249F
:101B94008D310030F0000030F1008C31CE248D31D5
:101BA4002000BF01080020005A08023EF000003067
:101BB40003180130F1007108803A803C031DE42DC4
:101BC40070086E02031CE72DE82DEB2D22008E1603
:101BD400022E20005A08FE3EF000FF3003180030A9
:101BE400F1007108803AF20080307202031DFC2D6E
:101BF4006E087002031CFF2D002E022E22008E128E
:101C0400080020005908FE3EF000FF3003180030A1
:101C1400F1007108803AF20080307202031D142E24
:101C24006E087002031C172E182E1B2E22000E168F
:101C3400302E20005908023EF00000300318013015
:101C4400F1007108803A803C031D2A2E70086E0250
:101C5400031C2D2E2E2E302E22000E12080070088A
:101C640071040319362E372E5E2E0130F400412EF6
:101C74000130F035F10D890B3B2E0130F407F11FD3
:101C8400442E452E3A2E71087302031D4B2E700804
:101C94007202031C4E2E4F2E532E7008F20271084E
:101CA400F33B0130F136F00C890B542E0130F40271
:101CB400031D5D2E5E2E452E7308F1007208F000A0
:101CC400080001302000B0070030B13DB23DB33D03
:101CD4000130B6070030B73D0130B8070030B93DD8
:101CE4000130B4070030B53D00303902FB30031930
:101CF4003802031C7E2E7F2E812EB801B9010130DB
:101D04003702F53003193602031C892E8A2E8C2ED5
:101D1400B601B70103303502E93003193402031C5C
:101D2400942E952E992EB401B5010130BE00080001
:101D3400F401F501700871040319A12EA22ECF2E0F
:101D44000130F600AC2E0130F035F10D890BA62ED2
:101D54000130F607F11FAF2EB02EA52E0130F43559
:101D6400F50D890BB12E71087302031DBB2E70088B
:101D74007202031CBE2EBF2EC42E7008F20271081C
:101D8400F33B74140130F136F00C890BC52E01308D
:101D9400F602031DCE2ECF2EB02E7508F100740866
:101DA400F0000800FF3078052000DB0003307905DF
:101DB400DC00FF30FA000130FB005B087A02DD0032
:101DC4005C087B3BDE005D08FA3EDD0000305E3DD2
:101DD400DE000A30F0000030F1005E08F3005D0818
:101DE400F200873190278E3171082000DE007008E0
:101DF400DD005E08803AFA0080307A02031D042F69
:101E040064305D02031C072F082F0D2F6330200060
:101E1400DD000030DE002000DE1F112F122F142FF2
:101E2400DD01DE015D0808008D3123258F3163302B
:101E3400F0000E30F1008C31E0248F318B170B173A
:101E44008B170B178D3136258F3186311B268F3139
:101E540020004608031D2F2F302F372F0B30F7009B
:101E64006E088F31A9278F314F2F4603031D3B2F57
:101E74003C2F432F0C30F7005A088F31A9278F319C
:101E84004F2F02304606031D482F492F4F2F0D3088
:101E9400F70059088F31A9278F318D31D5258F311E
:101EA4008E3103268F31242F80311328F501F31F3F
:101EB4005C2F5D2F642FF209F309F20A0319F30A68
:101EC4000130F500F11F672F682F6D2FF009F1091C
:101ED400F00A0319F10A700871040319722F732FA1
:101EE4009A2F0130F4007D2F0130F035F10D890B6C
:101EF400772F0130F407F11F802F812F762F71087F
:101F04007302031D872F70087202031C8A2F8B2F04
:101F14008F2F7008F2027108F33B0130F136F00C98
:101F2400890B902F0130F402031D992F9A2F812FD2
:101F3400750803199E2F9F2FA42FF209F309F20AA3
:101F44000319F30A7308F1007208F0000800200076
:101F5400DB005B08F800F9017808DE007908DF008F
:101F64000A30F0000030F1005F08F3005E08F20070
:101F74008E319A268F3170082000E2000A30620206
:101F8400031CC52FC62FD72F0A30F0000030F100F4
:101F94006208F800F9017808F2007908F3008F313B
:101FA40058278F3170082000E2000A30F00000301A
:101FB400F1005F08F3005E08F2008E3131268F31A4
:101FC40070082000DC007708DD00E001E1015C0816
:101FD400F4005D08F50062088D3193258F310130DE
:101FE4002000E0070030E13D003061020A300319AF
:0C1FF4006002031CFE2FFF2FE92F0800E5
:020000040001F9
:04000E00E43FFF1EAE
:00000001FF
