:020000040000FA
:040000008031132810
:100008007E1480318B1E09280A2811280B1D0D2803
:100018000E2811288A31EE2280317E1009008031A5
:100028001528E23084008A3085006230860000306E
:1000380087000C308A31BD228031DA3084008A3062
:100048008500A03086000030870008308A31BD2244
:100058008031203084000030850030308A31B7226A
:1000680080317E1020008D315E2DF3007308031D52
:100078003E283F286A28F001F00A720884318F244C
:1000880080310230F000720884318F2480310330CF
:10009800F000720884318F2480310430F000720837
:1000A80084318F2480310530F000720884318F2428
:1000B80080310630F000720884318F248031083096
:1000C800F000013084318F248031E62A7303031D48
:1000D8006E286F289A280530F000720884318F2422
:1000E80080310630F000720884318F248031083066
:1000F800F000013084318F2480310830F000013065
:1001080084318F2480310830F000013084318F240D
:1001180080310830F000013084318F24803108307C
:10012800F000013084318F248031E62A02307306D2
:10013800031D9F28A028CB28F001F00A72088431FB
:100148008F2480310230F000720884318F2480318E
:100158000430F000720884318F2480310530F000BB
:10016800720884318F2480310730F000720884319E
:100178008F2480310830F000013084318F248031A1
:100188000830F000013084318F248031E62A0330B2
:100198007306031DD028D128FC28F001F00A720844
:1001A80084318F2480310430F000720884318F2428
:1001B80080310530F000720884318F248031063098
:1001C800F000720884318F2480310730F000720803
:1001D80084318F2480310830F000013084318F243D
:1001E80080310830F000013084318F248031E62AD4
:1001F80004307306031D012902292D290330F0005C
:10020800720884318F2480310530F00072088431FF
:100218008F2480310630F000720884318F248031B9
:100228000730F000720884318F2480310830F000E4
:10023800013084318F2480310830F000013084315E
:100248008F2480310830F000013084318F248031D0
:10025800E62A05307306031D322933295E29F00189
:10026800F00A720884318F2480310330F00072085C
:1002780084318F2480310430F000720884318F2457
:1002880080310630F000720884318F2480310730C5
:10029800F000720884318F2480310830F00001307A
:1002A80084318F2480310830F000013084318F246C
:1002B8008031E62A06307306031D632964298F29D5
:1002C800F001F00A720884318F2480310230F00086
:1002D800720884318F2480310330F0007208843131
:1002E8008F2480310630F000720884318F248031E9
:1002F8000730F000720884318F2480310830F00014
:10030800013084318F2480310830F000013084318D
:100318008F248031E62A07307306031D9429952916
:10032800C0290330F000720884318F2480310430F2
:10033800F000720884318F2480310530F000720893
:1003480084318F2480310630F000720884318F2484
:1003580080310830F000013084318F24803108303A
:10036800F000013084318F2480310830F0000130F2
:1003780084318F248031E62A08307306031DC5298D
:10038800C629F129F001F00A720884318F248031DE
:100398000230F000720884318F2480310330F0007D
:1003A800720884318F2480310430F000720884315F
:1003B8008F2480310530F000720884318F24803119
:1003C8000630F000720884318F2480310730F00045
:1003D800720884318F248031E62A09307306031DA0
:1003E800F629F729222A0330F000720884318F2475
:1003F80080310430F000720884318F248031053058
:10040800F000720884318F2480310630F0007208C1
:1004180084318F2480310730F000720884318F24B2
:1004280080310830F000013084318F248031083069
:10043800F000013084318F248031E62A0A307306B7
:10044800031D272A282A532A0830F000720884310D
:100458008F2480310830F000013084318F248031BE
:100468000830F000013084318F2480310830F000EA
:10047800013084318F2480310830F000013084311C
:100488008F2480310830F000013084318F2480318E
:100498000830F000013084318F248031E62A0B3097
:1004A8007306031D582A592A842AF001F00A720893
:1004B80084318F2480310230F000720884318F2417
:1004C80080310330F000720884318F248031043089
:1004D800F000720884318F2480310830F000013038
:1004E80084318F2480310830F000013084318F242A
:1004F80080310830F000013084318F248031E62AC1
:100508000C307306031D892A8A2AB52A0330F000A5
:10051800720884318F2480310430F00072088431ED
:100528008F2480310530F000720884318F248031A7
:100538000730F000720884318F2480310830F000D1
:10054800013084318F2480310830F000013084314B
:100558008F2480310830F000013084318F248031BD
:10056800E62A0D307306031DBA2ABB2AE62AF001D3
:10057800F00A720884318F2480310230F00072084A
:1005880084318F2480310630F000720884318F2442
:1005980080310730F000720884318F2480310830B0
:1005A800F000013084318F2480310830F0000130B0
:1005B80084318F2480310830F000013084318F2459
:1005C8008031E62A08008731F52782317308200038
:1005D800D6007208D5007108D4007008D3000D0C3D
:1005E8000139D0000D0C890C0139D1000D0CF40033
:1005F800F40C740C0139D2005008031D042B052B90
:10060800552B6808500603190A2B0B2B162B560876
:10061800AB005508AA005408A9005308A8005008C0
:10062800E800842B28085302F4002908543BF500FD
:100638002A08553BF6002B08563BF7007708031DA0
:10064800302B7608031D302BE93074020330753BDC
:10065800031C2F2B302B342B02302000CE00842B90
:10066800200028085302F4002908543BF5002A0802
:10067800553BF6002B08563BF7007708031D502B17
:100688007608031D502B7508031D502B3330740258
:10069800031C4F2B502B542B01302000CE00842BF1
:1006A800842B68030319592B5A2B652B5608AB006A
:1006B8005508AA005408A9005308A8000130E8000A
:1006C800842B28085302F4002908543BF5002A0813
:1006D800553BF6002B08563BF7007708031D802B87
:1006E8007608031D802B7508031D802B3330740298
:1006F800031C7F2B802B842B2000CE010130EB00C4
:1007080020005108031D892B8A2BDA2B6708510614
:1007180003198F2B902B9B2B5608A7005508A60072
:100728005408A5005308A4005108E700092C240820
:100738005302F4002508543BF5002608553BF60003
:100748002708563BF7007708031DB52B7608031DCD
:10075800B52BE93074020330753B031CB42BB52B61
:10076800B92B02302000CD00092C200024085302A8
:10077800F4002508543BF5002608553BF6002708E9
:10078800563BF7007708031DD52B7608031DD52B9C
:100798007508031DD52B33307402031CD42BD52BBD
:1007A800D92B01302000CD00092C092C670303192F
:1007B800DE2BDF2BEA2B5608A7005508A6005408A5
:1007C800A5005308A4000130E700092C24085302AF
:1007D800F4002508543BF5002608553BF600270889
:1007E800563BF7007708031D052C7608031D052CDA
:1007F8007508031D052C33307402031C042C052CCA
:10080800092C2000CD010130EA0020005208031D08
:100818000E2C0F2C5F2C660852060319142C152C6D
:10082800202C5608A3005508A2005408A10053081C
:10083800A0005208E6008E2C20085302F40021087C
:10084800543BF5002208553BF6002308563BF700B9
:100858007708031D3A2C7608031D3A2CE9307402F8
:100868000330753B031C392C3A2C3E2C02302000F7
:10087800CC008E2C200020085302F4002108543BA1
:10088800F5002208553BF6002308563BF700770889
:10089800031D5A2C7608031D5A2C7508031D5A2C63
:1008A80033307402031C592C5A2C5E2C0130200062
:1008B800CC008E2C8E2C66030319632C642C6F2CB1
:1008C8005608A3005508A2005408A1005308A00028
:1008D8000130E6008E2C20085302F4002108543B16
:1008E800F5002208553BF6002308563BF700770829
:1008F800031D8A2C7608031D8A2C7508031D8A2C73
:1009080033307402031C892C8A2C8E2C2000CC01D5
:100918000130E9000800F1007103031D942C952CA7
:10092800192D7003031D992C9A2CA42C8A31D222DC
:10093800843121008E118C1322008E118C17222EE7
:1009480002307006031DA92CAA2CB42C8A31D2229D
:10095800843121008E110E1022008E110E14222EC9
:1009680003307006031DB92CBA2CC42C8A31D2224C
:10097800843121008E110E1122008E110E15222EA7
:1009880004307006031DC92CCA2CD42C8A31D222FB
:10099800843121008E108E1122008E108E15222E89
:1009A80005307006031DD92CDA2CE42C8A31D222AA
:1009B800843121008E118E1022008E118E14222E69
:1009C80006307006031DE92CEA2CF42C8A31D22259
:1009D800843121000E118E1122000E118E15222E47
:1009E80007307006031DF92CFA2C042D8A31D22207
:1009F800843121000E118C1322000E118C17222E27
:100A080008307006031D092D0A2D222E21008C1393
:100A18000C130E108E100E118E1122008C130C1355
:100A28000E108E100E118E11222E02307106031D2B
:100A38001E2D1F2D9E2D7003031D232D242D2E2DBD
:100A48008A31D222843121008E100E1122008E109C
:100A58000E15222E02307006031D332D342D3E2D27
:100A68008A31D222843121000E110E1022000E117B
:100A78000E14222E03307006031D432D442D4E2DD7
:100A88008A31D222843121000E118E1022000E11DB
:100A98008E14222E04307006031D532D542D5E2D06
:100AA8008A31D222843121008E100E1022008E103D
:100AB8000E14222E05307006031D632D642D6E2D35
:100AC8008A31D222843121000E108E1122000E109C
:100AD8008E15222E06307006031D732D742D7E2D63
:100AE8008A31D222843121000E108E1022000E107D
:100AF8008E14222E07307006031D832D842D8E2D13
:100B08008A31D222843121000E100E1122000E10DB
:100B18000E15222E08307006031D932D942D222EBB
:100B28008A31D222843121008C130E1022008C13BA
:100B38000E14222E03307106031DA32DA42D222E80
:100B48007003031DA82DA92DB32D8A31D22284311B
:100B580021000E100C1322000E100C17222E02304A
:100B68007006031DB82DB92DC32D8A31D2228431C8
:100B780021008E100C1322008E100C17222E033029
:100B88007006031DC82DC92DD32D8A31D222843178
:100B980021000C130E1122000C130E15222E043006
:100BA8007006031DD82DD92DE32D8A31D222843128
:100BB80021008E110C1322008E110C17222E0530E5
:100BC8007006031DE82DE92DF32D8A31D2228431D8
:100BD80021000E110C1322000E110C17222E0630C4
:100BE8007006031DF82DF92D032E8A31D222843187
:100BF80021000C130E1022000C130E14222E0730A5
:100C08007006031D082E092E132E8A31D222843134
:100C180021000C138E1022000C138E14222E083083
:100C28007006031D182E192E222E8A31D2228431E5
:100C380021008C130C1322008C130C172830890BFD
:100C4800232E080020004F08DB004F03031D2D2E24
:100C58002E2E312E6D08DC00392E02304F06031D72
:100C6800362E372E392E6C08DC00CE01CD01CC0192
:100C78008231E72286318731F527863173082000D3
:100C8800AF007208AE007108AD007008AC008E317C
:100C9800A926863120004B08031D532E542E2A2FD7
:100CA8004E03031D582E592E682E6B03031D5D2E0F
:100CB8005E2E682E0130DB0703305B02031C652EB5
:100CC800662E672EDB01EB014D03031D6C2E6D2E86
:100CD8007B2E6A03031D712E722E7B2E63305C02FD
:100CE8000318772E782E7A2E0130DC07EA010230BD
:100CF8004D06031D802E812EAD2E62082C02D700D2
:100D080063082D3BD80064082E3BD90065082F3BAB
:100D1800DA005A08031D9C2E5908031D9C2E5808FA
:100D2800031D9C2E65305702031C9B2E9C2EAD2E56
:100D3800633020005C020318A22EA32EA52E0130DA
:100D4800DC072F08E5002E08E4002D08E3002C0836
:100D5800E20020004C03031DB22EB32EC12E6903FE
:100D6800031DB72EB82EC12E02305C02031CBD2E07
:100D7800BE2EC02E0130DC02E90102304C06031DF4
:100D8800C62EC72E022F2100240820002C02D700CF
:100D98002100250820002D3BD8002100260820002E
:100DA8002E3BD9002100270820002F3BDA005A08E3
:100DB800031DEA2E5908031DEA2E5808031DEA2EC2
:100DC80065305702031CE92EEA2E022F023020005C
:100DD8005C02031CF02EF12EF32E0130DC022F08EA
:100DE8002100A70020002E082100A60020002D08C1
:100DF8002100A50020002C082100A40020004A039F
:100E0800031D072F082F112FCA014903031D0D2F9A
:100E18000E2F2A2FC901CF012A2F4F085B0603196D
:100E2800162F172F1A2F5B08CF002A2F4F03031DE9
:100E38001E2F1F2F222F5C08ED002A2F02304F068D
:100E4800031D272F282F2A2F5C08EC000800F034F8
:100E58000234E7340234DE340234D5340234CC347C
:100E68000234C3340234BA340234B0340234A734FE
:100E780002349D340234933402348A340234803488
:100E88000234763402346C34023463340234593414
:100E980002344F340234453402343B3402343134A2
:100EA8000234273402341D340234143402340A3430
:100EB800023400340234F6340134ED340134E334BE
:100EC8000134DA340134D0340134C7340134BE3447
:100ED8000134B5340134AC340134A33401349A34C8
:100EE8000134913401348934013480340134783444
:100EF80001347034013468340134603401345834B6
:100F080001345034013449340134413401343A3421
:100F18000134333401342C340134253401341E3483
:100F2800013418340134113401340B3401340534DC
:100F38000134FF340034F9340034F3340034ED3430
:100F48000034E7340034E2340034DD340034D7347C
:100F58000034D2340034CD340034C8340034C434BE
:100F68000034BF340034BA340034B6340034B234F8
:100F78000034AD340034A9340034A5340034A1342D
:100F880000349D3400349A3400349634003492345A
:100F980000348F3400348C34003488340034853481
:100FA8000034823400347F3400347C3400347934A3
:100FB80000347634003473340034703400346E34C2
:100FC80000346B34003469340034663400346434DB
:100FD8000034623400345F3400345D3400345B34F0
:100FE800003420003308F3003208F2003108F10021
:060FF8003008F0000800C3
:10153600163021009700080071082100A9007008E4
:10154600A800080071082100AD007008AC00080072
:1015560071082100AB007008AA000800710820007D
:10156600EF007008EE000800640080010131890B6D
:10157600B82A0034FE0012001E00FE0BBE2A0034FC
:101586007830210099009801220096010800F03079
:1015960021009E009B019C0101309D000800210056
:1015A6008C170C170E148E140E158E150800FF34AA
:1015B600FF34FF34FF34FF34FF34FF347F34FF340D
:1015C600FF34FF347F3401340134013401340134F3
:1015D60001341E341E340B112000460895006E0897
:1015E6006F040319F72AF82AFD2A6F088A006E0885
:1015F6000A008A3108008B3125238A318A31C322B9
:101606008A318A319B228A318B3111238A318A3180
:10161600CA228A318B319A238A31080021001508A3
:10162600C039133895000630200095000630C600F4
:101636000B118B166F08F1006E08F0008A31B1228B
:101646008B310800220090018C018D018E0108303B
:10165600210090003F308C00FF308D0080308E00DE
:10166600313023008D003F308C00240090018D0125
:101676002100951722009D010800F3007308F2006F
:10168600F20DF20D21001D087206833972069D00C7
:101696001D140630890B4D2B003221009D149D1818
:1016A600552B562B522B1C08F1001B08F000080086
:1016B600F401F501701C602B612B652B7208F40791
:1016C6007308F53D0130F235F30D890B662B0130B9
:1016D600F136F00C890B6B2B70087104031D742B0B
:1016E600752B5D2B7508F1007408F0000800F600F4
:1016F600F201F20A7608803139208B310230F2008D
:101706007408803139208B310330F2000A30803181
:1017160039208B310330F2007508803139208B3146
:10172600F201F20A0A30803139208B310800083084
:1017360023009F0090309D0024309E00CF309B00F8
:101746009C010030F0000030F1008A31A5228B3177
:101756000030F0000030F1008A31AB228B310030CE
:10176600F0000030F1008A319F228B312000C50144
:10177600080000308B3140238B3171082000BF00F8
:101786007008BE003F08F9003E08F8008C318C2432
:101796008B312000C7003F08D1003E08D0008F31B2
:1017A6003D278B3120005108BD005008BC000A308F
:1017B600F6000030F7003D08F9003C08F8008C31CF
:1017C60052248B3176082000C80008007008710486
:1017D6000319EE2BEF2B162C0130F400F92B0130F8
:1017E600F035F10D890BF32B0130F407F11FFC2BBB
:1017F600FD2BF22B71087302031D032C7008720275
:10180600031C062C072C0B2C7008F2027108F33B04
:101816000130F136F00C890B0C2C0130F402031D5B
:10182600152C162CFD2B7308F1007208F000080029
:1018360001302000B0070030B13DB23DB33D01306C
:10184600B6070030B73D0130B8070030B93D01306A
:10185600B4070030B53D00303902FB3003193802B9
:10186600031C362C372C392CB801B901013037024C
:10187600F53003193602031C412C422C442CB601C8
:10188600B70103303502E93003193402031C4C2C2E
:101896004D2C512CB401B5010130C4000800FA01E9
:1018A600FB01760877040319592C5A2C872C013032
:1018B600FC00642C0130F635F70D890B5E2C0130E7
:1018C600FC07F71F672C682C5D2C0130FA35FB0DE1
:1018D600890B692C77087902031D732C7608780228
:1018E600031C762C772C7C2C7608F8027708F93BBB
:1018F6007A140130F736F60C890B7D2C0130FC0288
:10190600031D862C872C682C7B08F7007A08F600C6
:101916000800FF3078052000D00003307905D1009B
:10192600FF30FA000130FB0050087A02D20051085D
:101936007B3BD3005208FA3ED2000030533DD30021
:101946000A30F0000030F1005308F3005208F200AC
:101956008E314E268C3171082000D3007008D200DB
:101966005308803AFA0080307A02031DBC2C64309A
:101976005202031CBF2CC02CC52C63302000D200A1
:101986000030D3002000D31FC92CCA2CCC2CD20186
:10199600D3015208080020006D08F600F70176080A
:1019A600F0007708F1000A30F2000030F3008B31C6
:1019B6005B238C317108F9007008F80020006D086F
:1019C600F600F7017608F0007708F1000A30F20019
:1019D6000030F3008B315B238C317008F63EFA0041
:1019E600FF30713DFB0020003D087902031DFD2CF0
:1019F6003C0878020318002D012D072D22008E16B3
:101A060001302000C100152D7B083D02031D0D2D60
:101A16007A083C020318102D112D152D22008E1266
:101A26002000C101080020006C08F600F7017608C6
:101A3600F0007708F1000A30F2000030F3008B3135
:101A46005B238D3170080A3EF8000030713DF900C5
:101A560020006C08F600F7017608F0007708F10020
:101A66000A30F2000030F3008B315B238D317108B0
:101A7600FB007008FA007B0820003D02031D452D7F
:101A86007A083C020318482D492D4F2D22000E16C8
:101A960001302000C0005D2D3D087902031D552D43
:101AA6003C0878020318582D592D5D2D22000E1280
:101AB6002000C00108008A31FE228D311B30F00063
:101AC6000C30F1008A31B1228D318B170B178B1731
:101AD6000B1720004403031D712D722D752D8B31BC
:101AE600BC238D31863126268D3120004F08031DFB
:101AF6007D2D7E2D852D0B30FD0048088D31F72577
:101B06008D319D2D4F03031D892D8A2D912D0C306E
:101B1600FD006D088D31F7258D319D2D02304F0664
:101B2600031D962D972D9D2D0D30FD006C088D31D2
:101B3600F7258D318C31CE248D318D3116258D31A1
:101B46006C2D80311328F501F31FAA2DAB2DB22D74
:101B5600F209F309F20A0319F30A0130F500F11F3D
:101B6600B52DB62DBB2DF009F109F00A0319F10ABE
:101B7600700871040319C02DC12DE82D0130F40041
:101B8600CB2D0130F035F10D890BC52D0130F40751
:101B9600F11FCE2DCF2DC42D71087302031DD52D37
:101BA60070087202031CD82DD92DDD2D7008F202A3
:101BB6007108F33B0130F136F00C890BDE2D013054
:101BC600F402031DE72DE82DCF2D75080319EC2D22
:101BD600ED2DF22DF209F309F20A0319F30A73083F
:101BE600F1007208F00008002000D2005208D00070
:101BF600D1015008D5005108D6000A30F600003051
:101C0600F7005608F9005508F8008C3152248D313A
:101C160076082000D9000A305902031C132E142E10
:101C2600252E0A30F0000030F1005908D000D1010D
:101C36005008F2005108F3008D31A6258D31700849
:101C46002000D9000A30F0000030F1005608F300F9
:101C56005508F2008B31E9238D3170082000D3003E
:101C66007D08D400D701D8015308F4005408F500C4
:101C760059088B317A238D3101302000D707003087
:101C8600D83D003058020A3003195702031C4C2E67
:101C96004D2E372E0800F501F11F522E532E5A2EC7
:101CA600F009F109F00A0319F10A0130F500F31FF2
:101CB6005D2E5E2E652EF209F309F20A0319F30A68
:101CC6000130F506F601F7017008710403196C2E50
:101CD6006D2E9A2E0130F400772E0130F035F10D7D
:101CE600890B712E0130F407F11F7A2E7B2E702E90
:101CF6000130F635F70D890B7C2E71087302031D32
:101D0600862E70087202031C892E8A2E8F2E70086A
:101D1600F2027108F33B76140130F136F00C890BB0
:101D2600902E0130F402031D992E9A2E7B2E7508F3
:101D360003199E2E9F2EA42EF609F709F60A0319FB
:101D4600F70A7708F1007608F0000800F8018731F5
:101D5600F5278E317308FC007208FB007108FA0043
:101D66007008F90020004E030319BA2EBB2EC12EAF
:101D760002304E06031DC02EC12ECF2E0130F807AD
:101D86007C082100A3007B08A2007A08A10079083C
:101D9600A0002000CA01C9014D030319D32ED42E79
:101DA600DA2E02304D06031DD92EDA2EE82E01302A
:101DB600F8077C082100A3007B08A2007A08A1008E
:101DC6007908A0002000CA01C9014C030319EC2EB2
:101DD600ED2EF32E02304C06031DF22EF32E012FAC
:101DE6000130F8077C082100A3007B08A2007A08CE
:101DF600A1007908A0002000CA01C90102307802BA
:101E0600031C062F072F0A2F0130CB000B2FCB0107
:101E16007808031D0F2F102F3A2F0130CA0021001A
:101E260020087902F40021087A3BF50022087B3B62
:101E3600F60023087C3BF7007708031D2D2F760854
:101E4600031D2D2F893074021330753B031C2C2F74
:101E56002D2F3C2F01302000C9007C082100A30053
:101E66007B08A2007A08A1007908A0003C2FCA01CD
:101E7600C901080065302000DE000030DF00DC010B
:101E8600DD010530D8000030D900F13084008730FC
:101E96008500003FD200013FD30053085102031DC5
:101EA600562F52085002031C592F5A2FF72FE001C4
:101EB600E101EC2F61088500600884008435850DFA
:101EC6002B3084070730053D80388500003FD2005F
:101ED600013FD30051085302031D732F50085202CD
:101EE6000318762F772FE82F60086104031D7C2FD7
:101EF6007D2F802FDC01DD01FB2F61088500600846
:101F060084008435850D2B3084070730053D8038E5
:101F16008500003FD200013FD300610885006008BC
:101F260084008435850D293084070730053D8038C7
:101F36008500003FD400013FD50052085402F60048
:101F46005308553BF7006108850060088400843516
:101F5600850D2B3084070730053D80388500003F0E
:101F6600D600013FD70056085002F0005708513BF3
:101F7600F1000A30F2000030F3008B315B238F3121
:101F86007108F9007008F8008C3152248F317708F7
:101F96002000DB007608DA006108F1006008F00036
:101FA6000A30F2000030F3008B315B238F312000C2
:101FB6005A087002D2005B08713BD30058085202DF
:101FC600DC005908533BDD00FB2F0130E0070030F1
:101FD600E13D5F086102031DF22F5E086002031CEB
:101FE600F52FF62F5D2FFB2FE730DC000330DD00E9
:0A1FF6005D08D1005C08D00008006F
:020000040001F9
:04000E00E43FFF1EAE
:00000001FF
