:040000008031132810
:100008007E1480318B1E09280A2811280B1D0D2803
:100018000E2811288631E52680317E1009008031AE
:100028001528873137278031FD00873138278031FF
:10003800CB00FC0120308400003085001B30873164
:10004800152780317E10200086313B2EF30073087F
:10005800031D2F2830285B28F001F00A720882312E
:10006800D82280310230F00072088231D8228031E3
:100078000330F00072088231D82280310430F00059
:1000880072088231D82280310530F000720882313E
:10009800D82280310630F00072088231D8228031AF
:1000A8000830F00001308231D8228031D72A73031A
:1000B800031D5F2860288B280530F0007208823104
:1000C800D82280310630F00072088231D82280317F
:1000D8000830F00001308231D82280310830F00039
:1000E80001308231D82280310830F000013082316D
:1000F800D82280310830F00001308231D822803196
:100108000830F00001308231D8228031D72A0230FD
:100118007306031D90289128BC28F001F00A720884
:100128008231D82280310230F00072088231D82220
:1001380080310430F00072088231D82280310530D5
:10014800F00072088231D82280310730F00072083E
:100158008231D82280310830F00001308231D82233
:1001680080310830F00001308231D8228031D72A1E
:1001780003307306031DC128C228ED28F001F00AD8
:1001880072088231D82280310430F000720882313E
:10019800D82280310530F00072088231D8228031AF
:1001A8000630F00072088231D82280310730F00022
:1001B80072088231D82280310830F0000130823153
:1001C800D82280310830F00001308231D8228031C5
:1001D800D72A04307306031DF228F3281E2903309A
:1001E800F00072088231D82280310530F0007208A0
:1001F8008231D82280310630F00072088231D8224C
:1002080080310730F00072088231D82280310830FE
:10021800F00001308231D82280310830F0000130FE
:100228008231D82280310830F00001308231D82262
:100238008031D72A05307306031D232924294F2925
:10024800F001F00A72088231D82280310330F000C0
:1002580072088231D82280310430F000720882316D
:10026800D82280310630F00072088231D8228031DD
:100278000730F00072088231D82280310830F0004F
:1002880001308231D82280310830F00001308231CB
:10029800D8228031D72A06307306031D54295529E0
:1002A8008029F001F00A72088231D82280310230A8
:1002B800F00072088231D82280310330F0007208D1
:1002C8008231D82280310630F00072088231D8227B
:1002D80080310730F00072088231D822803108302E
:1002E800F00001308231D82280310830F00001302E
:1002F8008231D8228031D72A07307306031D852919
:100308008629B1290330F00072088231D822803161
:100318000430F00072088231D82280310530F000B4
:1003280072088231D82280310630F000720882319A
:10033800D82280310830F00001308231D822803153
:100348000830F00001308231D82280310830F000C6
:1003580001308231D8228031D72A08307306031D34
:10036800B629B729E229F001F00A72088231D822A9
:1003780080310230F00072088231D8228031033097
:10038800F00072088231D82280310430F0007208FF
:100398008231D82280310530F00072088231D822AB
:1003A80080310630F00072088231D822803107305F
:1003B800F00072088231D8228031D72A09307306BA
:1003C800031DE729E829132A0330F0007208823157
:1003D800D82280310430F00072088231D82280316E
:1003E8000530F00072088231D82280310630F000E2
:1003F80072088231D82280310730F00072088231C9
:10040800D82280310830F00001308231D822803182
:100418000830F00001308231D8228031D72A0A30E2
:100428007306031D182A192A442A0830F000720896
:100438008231D82280310830F00001308231D82250
:1004480080310830F00001308231D8228031083004
:10045800F00001308231D82280310830F0000130BC
:100468008231D82280310830F00001308231D82220
:1004780080310830F00001308231D8228031D72A0B
:100488000B307306031D492A4A2A752AF001F00A1F
:1004980072088231D82280310230F000720882312D
:1004A800D82280310330F00072088231D82280319E
:1004B8000430F00072088231D82280310830F00010
:1004C80001308231D82280310830F0000130823189
:1004D800D82280310830F00001308231D8228031B2
:1004E800D72A0C307306031D7A2A7B2AA62A0330E2
:1004F800F00072088231D82280310430F00072088E
:100508008231D82280310530F00072088231D82239
:1005180080310730F00072088231D82280310830EB
:10052800F00001308231D82280310830F0000130EB
:100538008231D82280310830F00001308231D8224F
:100548008031D72A0D307306031DAB2AAC2AD72A6F
:10055800F001F00A72088231D82280310230F000AE
:1005680072088231D82280310630F0007208823158
:10057800D82280310730F00072088231D8228031C9
:100588000830F00001308231D82280310830F00084
:1005980001308231D82280310830F00001308231B8
:1005A800D8228031D72A0800F1007103031DDD2A03
:1005B800DE2A622B7003031DE22AE32AED2A863124
:1005C800FF26823121008E118C1322008E118C1788
:1005D8006B2C02307006031DF22AF32AFD2A86319D
:1005E800FF26823121008E110E1022008E110E146A
:1005F8006B2C03307006031D022B032B0D2B863149
:10060800FF26823121008E110E1122008E110E1547
:100618006B2C04307006031D122B132B1D2B8631F7
:10062800FF26823121008E108E1122008E108E1529
:100638006B2C05307006031D222B232B2D2B8631A6
:10064800FF26823121008E118E1022008E118E1409
:100658006B2C06307006031D322B332B3D2B863155
:10066800FF26823121000E118E1122000E118E15E7
:100678006B2C07307006031D422B432B4D2B863104
:10068800FF26823121000E118C1322000E118C17C7
:100698006B2C08307006031D522B532B6B2C21003A
:1006A8008C130C130E108E100E118E1122008C1349
:1006B8000C130E108E100E118E116B2C0230710659
:1006C800031D672B682BE72B7003031D6C2B6D2B09
:1006D800772B8631FF26823121008E100E112200E1
:1006E8008E100E156B2C02307006031D7C2B7D2B93
:1006F800872B8631FF26823121000E110E10220031
:100708000E110E146B2C03307006031D8C2B8D2BD1
:10071800972B8631FF26823121000E118E10220080
:100728000E118E146B2C04307006031D9C2B9D2B10
:10073800A72B8631FF26823121008E100E10220051
:100748008E100E146B2C05307006031DAC2BAD2BD0
:10075800B72B8631FF26823121000E108E11220020
:100768000E108E156B2C06307006031DBC2BBD2B8E
:10077800C72B8631FF26823121000E108E102200F1
:100788000E108E146B2C07307006031DCC2BCD2B4E
:10079800D72B8631FF26823121000E100E11220040
:1007A8000E100E156B2C08307006031DDC2BDD2B8C
:1007B8006B2C8631FF26823121008C130E1022000B
:1007C8008C130E146B2C03307106031DEC2BED2BD0
:1007D8006B2C7003031DF12BF22BFC2B8631FF26AB
:1007E800823121000E100C1322000E100C176B2CF6
:1007F80002307006031D012C022C0C2C8631FF26BA
:10080800823121008E100C1322008E100C176B2CD5
:1008180003307006031D112C122C1C2C8631FF2668
:10082800823121000C130E1122000C130E156B2CB3
:1008380004307006031D212C222C2C2C8631FF2617
:10084800823121008E110C1322008E110C176B2C93
:1008580005307006031D312C322C3C2C8631FF26C6
:10086800823121000E110C1322000E110C176B2C73
:1008780006307006031D412C422C4C2C8631FF2675
:10088800823121000C130E1022000C130E146B2C55
:1008980007307006031D512C522C5C2C8631FF2624
:1008A800823121000C138E1022000C138E146B2C35
:1008B80008307006031D612C622C6B2C8631FF26D4
:1008C800823121008C130C1322008C130C17283052
:1008D800890B6C2C08008631F52684317308FB00DF
:1008E8007208FA007108F9007008F80020008D18E5
:1008F8007E2C7F2CCD2C7D080319832C842C8E2CE8
:100908007B08AB007A08AA007908A9007808A80033
:10091800FD01FC2C28087802F4002908793BF50031
:100928002A087A3BF6002B087B3BF7007708031D63
:10093800A82C7608031DA82CE93074020330753BF7
:10094800031CA72CA82CAC2C02302000BA00FC2CCD
:10095800200028087802F4002908793BF5002A08C5
:100968007A3BF6002B087B3BF7007708031DC82C61
:100978007608031DC82C7508031DC82C3330740273
:10098800031CC72CC82CCC2C01302000BA00FC2C2E
:10099800FC2C7D030319D12CD22CDD2C7B08AB0059
:1009A8007A08AA007908A9007808A8000130FD0093
:1009B800FC2C28087802F4002908793BF5002A085D
:1009C8007A3BF6002B087B3BF7007708031DF82CD1
:1009D8007608031DF82C7508031DF82C33307402B3
:1009E800031CF72CF82CFC2C2000BA010130CB009A
:1009F80008002000C3004308F800F9017808C60081
:100A08007908C7000A30F0000030F1004708F30009
:100A18004608F2008531A525843170082000CA00F7
:100A28000A304A02031C192D1A2D2B2D0A30F0000A
:100A38000030F1004A08F800F9017808F200790856
:100A4800F30085315425843170082000CA000A302B
:100A5800F0000030F1004708F3004608F200853145
:100A6800DF25843170082000C4007708C500C8015C
:100A7800C9014408F4004508F5004A088631832670
:100A8800843101302000C8070030C93D00304902D8
:100A98000A3003194802031C522D532D3D2D08001E
:100AA800F501F31F582D592D602DF209F309F20AAB
:100AB8000319F30A0130F500F11F632D642D692D28
:100AC800F009F109F00A0319F10A70087104031911
:100AD8006E2D6F2D962D0130F400792D0130F035F3
:100AE800F10D890B732D0130F407F11F7C2D7D2D3D
:100AF800722D71087302031D832D70087202031C86
:100B0800862D872D8B2D7008F2027108F33B01307A
:100B1800F136F00C890B8C2D0130F402031D952D54
:100B2800962D7D2D750803199A2D9B2DA02DF20960
:100B3800F309F20A0319F30A7308F1007208F000C6
:100B48000800F401F501700871040319AC2DAD2DEE
:100B5800DA2D0130F600B72D0130F035F10D890B93
:100B6800B12D0130F607F11FBA2DBB2DB02D013084
:100B7800F435F50D890BBC2D71087302031DC62DC4
:100B880070087202031CC92DCA2DCF2D7008F202FD
:100B98007108F33B74140130F136F00C890BD02D39
:100BA8000130F602031DD92DDA2DBB2D7508F10091
:100BB8007408F0000800700871040319E42DE52D8D
:100BC8000C2E0130F400EF2D0130F035F10D890BBA
:100BD800E92D0130F407F11FF22DF32DE82D7108EE
:100BE8007302031DF92D70087202031CFC2DFD2DE4
:100BF800012E7008F2027108F33B0130F136F00C57
:100C0800890B022E0130F402031D0B2E0C2EF32D3E
:100C18007308F1007208F000080001302000AC07EA
:100C28000030AD3DAE3DAF3D0130B2070030B33DC1
:100C38000130B4070030B53D0130B0070030B13D98
:100C480000303502FB3003193402031C2C2E2D2EE4
:100C58002F2EB401B50101303302F53003193202E9
:100C6800031C372E382E3A2EB201B3010800863104
:100C7800D22686311130F0000630F10087311B276B
:100C880086318B170B1784316F24863120003A0385
:100C9800031D4F2E502E582E4B03031D542E552E38
:100CA800582E0130B807CB010B30F70038088431D3
:100CB800FD248631472E80311328083023009F00F9
:100CC80080309D0024309E00CF309B009C01003076
:100CD800F0000030F1008731272786310030F0001E
:100CE8000030F1008731212786310030F0000030D4
:100CF800F10087312D2786312000B9010800F60060
:100D0800F201F20A760880312A2086310230F20098
:100D1800740880312A2086310330F2000A3080318D
:100D28002A2086310330F200750880312A20863166
:100D3800F201F20A0A3080312A20863108002200A6
:100D480090018C018D018E010830210090003F3008
:100D58008C00FF308D0080308E00313023008D00F4
:100D68003F308C00240090018D012100951722004E
:100D78009D01080021001508C03913389500063078
:100D8800200095000630FC000B118B164208F1007C
:100D98004108F00087311B27863108008631A326D9
:100DA8008631873107278631873133278631873166
:100DB8000E2786318631BE268631863161268631F8
:100DC80008000B117C082000950041084204031913
:100DD800EE2EEF2EF42E42088A0041080A008631D2
:100DE800080020002F08F3002E08F2002D08F1005B
:100DF8002C08F000080021008C170C170E148E1414
:100E08000E158E15080078302100990098012200EF
:100E18009601080021009E019B019C0101309D0064
:100E28000800640080010131890B162F0034710815
:100E38002000C2007008C100080071082000BE0030
:100E48007008BD00080071082000C0007008BF00CD
:100E5800080071082000BC007008BB0008001630AC
:0A0E68002100970008000134013456
:020000040001F9
:04000E00E43FFF1EAE
:00000001FF
